{
  "_format": "hh-sol-artifact-1",
  "contractName": "Voting",
  "sourceName": "contracts/Voting.sol",
  "abi": [
    {
      "inputs": [
        {
          "internalType": "string[]",
          "name": "_candidatesNames",
          "type": "string[]"
        },
        {
          "internalType": "uint256",
          "name": "_durationInMinutes",
          "type": "uint256"
        }
      ],
      "stateMutability": "nonpayable",
      "type": "constructor"
    },
    {
      "inputs": [
        {
          "internalType": "string",
          "name": "_name",
          "type": "string"
        }
      ],
      "name": "addCandidate",
      "outputs": [],
      "stateMutability": "nonpayable",
      "type": "function"
    },
    {
      "inputs": [
        {
          "internalType": "uint256",
          "name": "",
          "type": "uint256"
        }
      ],
      "name": "candidates",
      "outputs": [
        {
          "internalType": "string",
          "name": "name",
          "type": "string"
        },
        {
          "internalType": "uint256",
          "name": "voteCount",
          "type": "uint256"
        }
      ],
      "stateMutability": "view",
      "type": "function"
    },
    {
      "inputs": [],
      "name": "getAllVotesOfCandiates",
      "outputs": [
        {
          "components": [
            {
              "internalType": "string",
              "name": "name",
              "type": "string"
            },
            {
              "internalType": "uint256",
              "name": "voteCount",
              "type": "uint256"
            }
          ],
          "internalType": "struct Voting.Candidate[]",
          "name": "",
          "type": "tuple[]"
        }
      ],
      "stateMutability": "view",
      "type": "function"
    },
    {
      "inputs": [],
      "name": "getRemainingTime",
      "outputs": [
        {
          "internalType": "uint256",
          "name": "",
          "type": "uint256"
        }
      ],
      "stateMutability": "view",
      "type": "function"
    },
    {
      "inputs": [
        {
          "internalType": "address",
          "name": "_address",
          "type": "address"
        }
      ],
      "name": "getVoterStatus",
      "outputs": [
        {
          "internalType": "bool",
          "name": "",
          "type": "bool"
        }
      ],
      "stateMutability": "view",
      "type": "function"
    },
    {
      "inputs": [],
      "name": "getVotingStatus",
      "outputs": [
        {
          "internalType": "bool",
          "name": "",
          "type": "bool"
        }
      ],
      "stateMutability": "view",
      "type": "function"
    },
    {
      "inputs": [
        {
          "internalType": "uint256",
          "name": "_candidateIndex",
          "type": "uint256"
        }
      ],
      "name": "vote",
      "outputs": [],
      "stateMutability": "nonpayable",
      "type": "function"
    },
    {
      "inputs": [
        {
          "internalType": "address",
          "name": "",
          "type": "address"
        }
      ],
      "name": "voters",
      "outputs": [
        {
          "internalType": "bool",
          "name": "",
          "type": "bool"
        }
      ],
      "stateMutability": "view",
      "type": "function"
    },
    {
      "inputs": [],
      "name": "votingEnd",
      "outputs": [
        {
          "internalType": "uint256",
          "name": "",
          "type": "uint256"
        }
      ],
      "stateMutability": "view",
      "type": "function"
    },
    {
      "inputs": [],
      "name": "votingStart",
      "outputs": [
        {
          "internalType": "uint256",
          "name": "",
          "type": "uint256"
        }
      ],
      "stateMutability": "view",
      "type": "function"
    }
  ],
  "bytecode": "0x60806040523480156200001157600080fd5b50604051620016ee380380620016ee8339818101604052810190620000379190620004da565b60005b82518110156200014d576000604051806040016040528085848151811062000067576200006662000540565b5b60200260200101518152602001600081525090806001815401808255809150506001900390600052602060002090600202016000909190919091506000820151816000019080519060200190620000c092919062000156565b5060208201518160010155505033600160006101000a81548173ffffffffffffffffffffffffffffffffffffffff021916908373ffffffffffffffffffffffffffffffffffffffff16021790555042600381905550603c826200012491906200059e565b42620001319190620005ff565b600481905550808062000144906200065c565b9150506200003a565b5050506200070f565b8280546200016490620006d9565b90600052602060002090601f016020900481019282620001885760008555620001d4565b82601f10620001a357805160ff1916838001178555620001d4565b82800160010185558215620001d4579182015b82811115620001d3578251825591602001919060010190620001b6565b5b509050620001e39190620001e7565b5090565b5b8082111562000202576000816000905550600101620001e8565b5090565b6000604051905090565b600080fd5b600080fd5b600080fd5b6000601f19601f8301169050919050565b7f4e487b7100000000000000000000000000000000000000000000000000000000600052604160045260246000fd5b6200026a826200021f565b810181811067ffffffffffffffff821117156200028c576200028b62000230565b5b80604052505050565b6000620002a162000206565b9050620002af82826200025f565b919050565b600067ffffffffffffffff821115620002d257620002d162000230565b5b602082029050602081019050919050565b600080fd5b600080fd5b600067ffffffffffffffff8211156200030b576200030a62000230565b5b62000316826200021f565b9050602081019050919050565b60005b838110156200034357808201518184015260208101905062000326565b8381111562000353576000848401525b50505050565b6000620003706200036a84620002ed565b62000295565b9050828152602081018484840111156200038f576200038e620002e8565b5b6200039c84828562000323565b509392505050565b600082601f830112620003bc57620003bb6200021a565b5b8151620003ce84826020860162000359565b91505092915050565b6000620003ee620003e884620002b4565b62000295565b90508083825260208201905060208402830185811115620004145762000413620002e3565b5b835b818110156200046257805167ffffffffffffffff8111156200043d576200043c6200021a565b5b8086016200044c8982620003a4565b8552602085019450505060208101905062000416565b5050509392505050565b600082601f8301126200048457620004836200021a565b5b815162000496848260208601620003d7565b91505092915050565b6000819050919050565b620004b4816200049f565b8114620004c057600080fd5b50565b600081519050620004d481620004a9565b92915050565b60008060408385031215620004f457620004f362000210565b5b600083015167ffffffffffffffff81111562000515576200051462000215565b5b62000523858286016200046c565b92505060206200053685828601620004c3565b9150509250929050565b7f4e487b7100000000000000000000000000000000000000000000000000000000600052603260045260246000fd5b7f4e487b7100000000000000000000000000000000000000000000000000000000600052601160045260246000fd5b6000620005ab826200049f565b9150620005b8836200049f565b9250817fffffffffffffffffffffffffffffffffffffffffffffffffffffffffffffffff0483118215151615620005f457620005f36200056f565b5b828202905092915050565b60006200060c826200049f565b915062000619836200049f565b9250827fffffffffffffffffffffffffffffffffffffffffffffffffffffffffffffffff038211156200065157620006506200056f565b5b828201905092915050565b600062000669826200049f565b91507fffffffffffffffffffffffffffffffffffffffffffffffffffffffffffffffff8214156200069f576200069e6200056f565b5b600182019050919050565b7f4e487b7100000000000000000000000000000000000000000000000000000000600052602260045260246000fd5b60006002820490506001821680620006f257607f821691505b60208210811415620007095762000708620006aa565b5b50919050565b610fcf806200071f6000396000f3fe608060405234801561001057600080fd5b506004361061009e5760003560e01c8063581c281c11610066578063581c281c1461014857806378e3ef201461016657806385a3863514610196578063a3ec138d146101b4578063efb98bcf146101e45761009e565b80630121b93f146100a3578063101158af146100bf5780633477ee2e146100dd578063462e91ec1461010e5780634d6bda5f1461012a575b600080fd5b6100bd60048036038101906100b89190610840565b610202565b005b6100c761036c565b6040516100d4919061087c565b60405180910390f35b6100f760048036038101906100f29190610840565b610372565b604051610105929190610930565b60405180910390f35b61012860048036038101906101239190610a95565b61042e565b005b6101326104f5565b60405161013f9190610c36565b60405180910390f35b6101506105f0565b60405161015d9190610c73565b60405180910390f35b610180600480360381019061017b9190610cec565b61060a565b60405161018d9190610c73565b60405180910390f35b61019e6106bf565b6040516101ab919061087c565b60405180910390f35b6101ce60048036038101906101c99190610cec565b6106c5565b6040516101db9190610c73565b60405180910390f35b6101ec6106e5565b6040516101f9919061087c565b60405180910390f35b600260003373ffffffffffffffffffffffffffffffffffffffff1673ffffffffffffffffffffffffffffffffffffffff16815260200190815260200160002060009054906101000a900460ff161561028f576040517f08c379a000000000000000000000000000000000000000000000000000000000815260040161028690610d65565b60405180910390fd5b60008054905081106102d6576040517f08c379a00000000000000000000000000000000000000000000000000000000081526004016102cd90610dd1565b60405180910390fd5b600081815481106102ea576102e9610df1565b5b9060005260206000209060020201600101600081548092919061030c90610e4f565b91905055506001600260003373ffffffffffffffffffffffffffffffffffffffff1673ffffffffffffffffffffffffffffffffffffffff16815260200190815260200160002060006101000a81548160ff02191690831515021790555050565b60035481565b6000818154811061038257600080fd5b90600052602060002090600202016000915090508060000180546103a590610ec7565b80601f01602080910402602001604051908101604052809291908181526020018280546103d190610ec7565b801561041e5780601f106103f35761010080835404028352916020019161041e565b820191906000526020600020905b81548152906001019060200180831161040157829003601f168201915b5050505050908060010154905082565b600160009054906101000a900473ffffffffffffffffffffffffffffffffffffffff1673ffffffffffffffffffffffffffffffffffffffff163373ffffffffffffffffffffffffffffffffffffffff161461048857600080fd5b600060405180604001604052808381526020016000815250908060018154018082558091505060019003906000526020600020906002020160009091909190915060008201518160000190805190602001906104e5929190610753565b5060208201518160010155505050565b60606000805480602002602001604051908101604052809291908181526020016000905b828210156105e7578382906000526020600020906002020160405180604001604052908160008201805461054c90610ec7565b80601f016020809104026020016040519081016040528092919081815260200182805461057890610ec7565b80156105c55780601f1061059a576101008083540402835291602001916105c5565b820191906000526020600020905b8154815290600101906020018083116105a857829003601f168201915b5050505050815260200160018201548152505081526020019060010190610519565b50505050905090565b60006003544210158015610605575060045442105b905090565b6000801515600260008473ffffffffffffffffffffffffffffffffffffffff1673ffffffffffffffffffffffffffffffffffffffff16815260200190815260200160002060009054906101000a900460ff161515146106b557600260008373ffffffffffffffffffffffffffffffffffffffff1673ffffffffffffffffffffffffffffffffffffffff16815260200190815260200160002060009054906101000a900460ff166106b8565b60015b9050919050565b60045481565b60026020528060005260406000206000915054906101000a900460ff1681565b600060035442101561072c576040517f08c379a000000000000000000000000000000000000000000000000000000000815260040161072390610f45565b60405180910390fd5b60045442111561073f5760009050610750565b4260045461074d9190610f65565b90505b90565b82805461075f90610ec7565b90600052602060002090601f01602090048101928261078157600085556107c8565b82601f1061079a57805160ff19168380011785556107c8565b828001600101855582156107c8579182015b828111156107c75782518255916020019190600101906107ac565b5b5090506107d591906107d9565b5090565b5b808211156107f25760008160009055506001016107da565b5090565b6000604051905090565b600080fd5b600080fd5b6000819050919050565b61081d8161080a565b811461082857600080fd5b50565b60008135905061083a81610814565b92915050565b60006020828403121561085657610855610800565b5b60006108648482850161082b565b91505092915050565b6108768161080a565b82525050565b6000602082019050610891600083018461086d565b92915050565b600081519050919050565b600082825260208201905092915050565b60005b838110156108d15780820151818401526020810190506108b6565b838111156108e0576000848401525b50505050565b6000601f19601f8301169050919050565b600061090282610897565b61090c81856108a2565b935061091c8185602086016108b3565b610925816108e6565b840191505092915050565b6000604082019050818103600083015261094a81856108f7565b9050610959602083018461086d565b9392505050565b600080fd5b600080fd5b7f4e487b7100000000000000000000000000000000000000000000000000000000600052604160045260246000fd5b6109a2826108e6565b810181811067ffffffffffffffff821117156109c1576109c061096a565b5b80604052505050565b60006109d46107f6565b90506109e08282610999565b919050565b600067ffffffffffffffff821115610a00576109ff61096a565b5b610a09826108e6565b9050602081019050919050565b82818337600083830152505050565b6000610a38610a33846109e5565b6109ca565b905082815260208101848484011115610a5457610a53610965565b5b610a5f848285610a16565b509392505050565b600082601f830112610a7c57610a7b610960565b5b8135610a8c848260208601610a25565b91505092915050565b600060208284031215610aab57610aaa610800565b5b600082013567ffffffffffffffff811115610ac957610ac8610805565b5b610ad584828501610a67565b91505092915050565b600081519050919050565b600082825260208201905092915050565b6000819050602082019050919050565b600082825260208201905092915050565b6000610b2682610897565b610b308185610b0a565b9350610b408185602086016108b3565b610b49816108e6565b840191505092915050565b610b5d8161080a565b82525050565b60006040830160008301518482036000860152610b808282610b1b565b9150506020830151610b956020860182610b54565b508091505092915050565b6000610bac8383610b63565b905092915050565b6000602082019050919050565b6000610bcc82610ade565b610bd68185610ae9565b935083602082028501610be885610afa565b8060005b85811015610c245784840389528151610c058582610ba0565b9450610c1083610bb4565b925060208a01995050600181019050610bec565b50829750879550505050505092915050565b60006020820190508181036000830152610c508184610bc1565b905092915050565b60008115159050919050565b610c6d81610c58565b82525050565b6000602082019050610c886000830184610c64565b92915050565b600073ffffffffffffffffffffffffffffffffffffffff82169050919050565b6000610cb982610c8e565b9050919050565b610cc981610cae565b8114610cd457600080fd5b50565b600081359050610ce681610cc0565b92915050565b600060208284031215610d0257610d01610800565b5b6000610d1084828501610cd7565b91505092915050565b7f596f75206861766520616c726561647920766f7465642e000000000000000000600082015250565b6000610d4f6017836108a2565b9150610d5a82610d19565b602082019050919050565b60006020820190508181036000830152610d7e81610d42565b9050919050565b7f496e76616c69642063616e64696461746520696e6465782e0000000000000000600082015250565b6000610dbb6018836108a2565b9150610dc682610d85565b602082019050919050565b60006020820190508181036000830152610dea81610dae565b9050919050565b7f4e487b7100000000000000000000000000000000000000000000000000000000600052603260045260246000fd5b7f4e487b7100000000000000000000000000000000000000000000000000000000600052601160045260246000fd5b6000610e5a8261080a565b91507fffffffffffffffffffffffffffffffffffffffffffffffffffffffffffffffff821415610e8d57610e8c610e20565b5b600182019050919050565b7f4e487b7100000000000000000000000000000000000000000000000000000000600052602260045260246000fd5b60006002820490506001821680610edf57607f821691505b60208210811415610ef357610ef2610e98565b5b50919050565b7f566f74696e6720686173206e6f742073746172746564207965742e0000000000600082015250565b6000610f2f601b836108a2565b9150610f3a82610ef9565b602082019050919050565b60006020820190508181036000830152610f5e81610f22565b9050919050565b6000610f708261080a565b9150610f7b8361080a565b925082821015610f8e57610f8d610e20565b5b82820390509291505056fea264697066735822122037ed12c93b364322432b506e28013d33048af8b6b141a18dcd1479058216a05c64736f6c634300080b0033",
  "linkReferences": {},
  "deployedLinkReferences": {}
}